{
  "_format": "hh-sol-artifact-1",
  "contractName": "ColonyAnt",
  "sourceName": "contracts/ColonyAnt.sol",
  "abi": [
    {
      "inputs": [],
      "stateMutability": "nonpayable",
      "type": "constructor"
    },
    {
      "inputs": [
        {
          "internalType": "address",
          "name": "spender",
          "type": "address"
        },
        {
          "internalType": "uint256",
          "name": "allowance",
          "type": "uint256"
        },
        {
          "internalType": "uint256",
          "name": "needed",
          "type": "uint256"
        }
      ],
      "name": "ERC20InsufficientAllowance",
      "type": "error"
    },
    {
      "inputs": [
        {
          "internalType": "address",
          "name": "sender",
          "type": "address"
        },
        {
          "internalType": "uint256",
          "name": "balance",
          "type": "uint256"
        },
        {
          "internalType": "uint256",
          "name": "needed",
          "type": "uint256"
        }
      ],
      "name": "ERC20InsufficientBalance",
      "type": "error"
    },
    {
      "inputs": [
        {
          "internalType": "address",
          "name": "approver",
          "type": "address"
        }
      ],
      "name": "ERC20InvalidApprover",
      "type": "error"
    },
    {
      "inputs": [
        {
          "internalType": "address",
          "name": "receiver",
          "type": "address"
        }
      ],
      "name": "ERC20InvalidReceiver",
      "type": "error"
    },
    {
      "inputs": [
        {
          "internalType": "address",
          "name": "sender",
          "type": "address"
        }
      ],
      "name": "ERC20InvalidSender",
      "type": "error"
    },
    {
      "inputs": [
        {
          "internalType": "address",
          "name": "spender",
          "type": "address"
        }
      ],
      "name": "ERC20InvalidSpender",
      "type": "error"
    },
    {
      "anonymous": false,
      "inputs": [
        {
          "indexed": true,
          "internalType": "address",
          "name": "owner",
          "type": "address"
        },
        {
          "indexed": true,
          "internalType": "address",
          "name": "spender",
          "type": "address"
        },
        {
          "indexed": false,
          "internalType": "uint256",
          "name": "value",
          "type": "uint256"
        }
      ],
      "name": "Approval",
      "type": "event"
    },
    {
      "anonymous": false,
      "inputs": [
        {
          "indexed": true,
          "internalType": "address",
          "name": "from",
          "type": "address"
        },
        {
          "indexed": true,
          "internalType": "address",
          "name": "to",
          "type": "address"
        },
        {
          "indexed": false,
          "internalType": "uint256",
          "name": "value",
          "type": "uint256"
        }
      ],
      "name": "Transfer",
      "type": "event"
    },
    {
      "inputs": [],
      "name": "MAX_SUPPLY",
      "outputs": [
        {
          "internalType": "uint256",
          "name": "",
          "type": "uint256"
        }
      ],
      "stateMutability": "view",
      "type": "function"
    },
    {
      "inputs": [
        {
          "internalType": "address",
          "name": "owner",
          "type": "address"
        },
        {
          "internalType": "address",
          "name": "spender",
          "type": "address"
        }
      ],
      "name": "allowance",
      "outputs": [
        {
          "internalType": "uint256",
          "name": "",
          "type": "uint256"
        }
      ],
      "stateMutability": "view",
      "type": "function"
    },
    {
      "inputs": [
        {
          "internalType": "address",
          "name": "spender",
          "type": "address"
        },
        {
          "internalType": "uint256",
          "name": "value",
          "type": "uint256"
        }
      ],
      "name": "approve",
      "outputs": [
        {
          "internalType": "bool",
          "name": "",
          "type": "bool"
        }
      ],
      "stateMutability": "nonpayable",
      "type": "function"
    },
    {
      "inputs": [
        {
          "internalType": "address",
          "name": "account",
          "type": "address"
        }
      ],
      "name": "balanceOf",
      "outputs": [
        {
          "internalType": "uint256",
          "name": "",
          "type": "uint256"
        }
      ],
      "stateMutability": "view",
      "type": "function"
    },
    {
      "inputs": [
        {
          "internalType": "uint256",
          "name": "amount",
          "type": "uint256"
        }
      ],
      "name": "burn",
      "outputs": [],
      "stateMutability": "nonpayable",
      "type": "function"
    },
    {
      "inputs": [],
      "name": "decimals",
      "outputs": [
        {
          "internalType": "uint8",
          "name": "",
          "type": "uint8"
        }
      ],
      "stateMutability": "view",
      "type": "function"
    },
    {
      "inputs": [],
      "name": "name",
      "outputs": [
        {
          "internalType": "string",
          "name": "",
          "type": "string"
        }
      ],
      "stateMutability": "view",
      "type": "function"
    },
    {
      "inputs": [],
      "name": "symbol",
      "outputs": [
        {
          "internalType": "string",
          "name": "",
          "type": "string"
        }
      ],
      "stateMutability": "view",
      "type": "function"
    },
    {
      "inputs": [],
      "name": "totalSupply",
      "outputs": [
        {
          "internalType": "uint256",
          "name": "",
          "type": "uint256"
        }
      ],
      "stateMutability": "view",
      "type": "function"
    },
    {
      "inputs": [
        {
          "internalType": "address",
          "name": "to",
          "type": "address"
        },
        {
          "internalType": "uint256",
          "name": "value",
          "type": "uint256"
        }
      ],
      "name": "transfer",
      "outputs": [
        {
          "internalType": "bool",
          "name": "",
          "type": "bool"
        }
      ],
      "stateMutability": "nonpayable",
      "type": "function"
    },
    {
      "inputs": [
        {
          "internalType": "address",
          "name": "from",
          "type": "address"
        },
        {
          "internalType": "address",
          "name": "to",
          "type": "address"
        },
        {
          "internalType": "uint256",
          "name": "value",
          "type": "uint256"
        }
      ],
      "name": "transferFrom",
      "outputs": [
        {
          "internalType": "bool",
          "name": "",
          "type": "bool"
        }
      ],
      "stateMutability": "nonpayable",
      "type": "function"
    }
  ],
  "bytecode": "0x608060405234801561000f575f5ffd5b506040518060400160405280600981526020016810dbdb1bdb9e505b9d60ba1b8152506040518060400160405280600481526020016310d0539560e21b815250816003908161005e919061028a565b50600461006b828261028a565b50505061008a336b204fce5e3e2502611000000061008f60201b60201c565b610369565b6001600160a01b0382166100bd5760405163ec442f0560e01b81525f60048201526024015b60405180910390fd5b6100c85f83836100cc565b5050565b6001600160a01b0383166100f6578060025f8282546100eb9190610344565b909155506101669050565b6001600160a01b0383165f90815260208190526040902054818110156101485760405163391434e360e21b81526001600160a01b038516600482015260248101829052604481018390526064016100b4565b6001600160a01b0384165f9081526020819052604090209082900390555b6001600160a01b038216610182576002805482900390556101a0565b6001600160a01b0382165f9081526020819052604090208054820190555b816001600160a01b0316836001600160a01b03167fddf252ad1be2c89b69c2b068fc378daa952ba7f163c4a11628f55a4df523b3ef836040516101e591815260200190565b60405180910390a3505050565b634e487b7160e01b5f52604160045260245ffd5b600181811c9082168061021a57607f821691505b60208210810361023857634e487b7160e01b5f52602260045260245ffd5b50919050565b601f82111561028557805f5260205f20601f840160051c810160208510156102635750805b601f840160051c820191505b81811015610282575f815560010161026f565b50505b505050565b81516001600160401b038111156102a3576102a36101f2565b6102b7816102b18454610206565b8461023e565b6020601f8211600181146102e9575f83156102d25750848201515b5f19600385901b1c1916600184901b178455610282565b5f84815260208120601f198516915b8281101561031857878501518255602094850194600190920191016102f8565b508482101561033557868401515f19600387901b60f8161c191681555b50505050600190811b01905550565b8082018082111561036357634e487b7160e01b5f52601160045260245ffd5b92915050565b610793806103765f395ff3fe608060405234801561000f575f5ffd5b50600436106100a6575f3560e01c806332cb6b0c1161006e57806332cb6b0c1461011f57806342966c681461013257806370a082311461014757806395d89b411461016f578063a9059cbb14610177578063dd62ed3e1461018a575f5ffd5b806306fdde03146100aa578063095ea7b3146100c857806318160ddd146100eb57806323b872dd146100fd578063313ce56714610110575b5f5ffd5b6100b26101c2565b6040516100bf91906105d6565b60405180910390f35b6100db6100d636600461063c565b610252565b60405190151581526020016100bf565b6002545b6040519081526020016100bf565b6100db61010b366004610664565b61026b565b604051601281526020016100bf565b6100ef6b204fce5e3e2502611000000081565b61014561014036600461069e565b61028e565b005b6100ef6101553660046106b5565b6001600160a01b03165f9081526020819052604090205490565b6100b261029b565b6100db61018536600461063c565b6102aa565b6100ef6101983660046106d5565b6001600160a01b039182165f90815260016020908152604080832093909416825291909152205490565b6060600380546101d190610706565b80601f01602080910402602001604051908101604052809291908181526020018280546101fd90610706565b80156102485780601f1061021f57610100808354040283529160200191610248565b820191905f5260205f20905b81548152906001019060200180831161022b57829003601f168201915b5050505050905090565b5f3361025f8185856102b7565b60019150505b92915050565b5f336102788582856102c9565b610283858585610349565b506001949350505050565b61029833826103a6565b50565b6060600480546101d190610706565b5f3361025f818585610349565b6102c483838360016103de565b505050565b6001600160a01b038381165f908152600160209081526040808320938616835292905220545f198114610343578181101561033557604051637dc7a0d960e11b81526001600160a01b038416600482015260248101829052604481018390526064015b60405180910390fd5b61034384848484035f6103de565b50505050565b6001600160a01b03831661037257604051634b637e8f60e11b81525f600482015260240161032c565b6001600160a01b03821661039b5760405163ec442f0560e01b81525f600482015260240161032c565b6102c48383836104b0565b6001600160a01b0382166103cf57604051634b637e8f60e11b81525f600482015260240161032c565b6103da825f836104b0565b5050565b6001600160a01b0384166104075760405163e602df0560e01b81525f600482015260240161032c565b6001600160a01b03831661043057604051634a1406b160e11b81525f600482015260240161032c565b6001600160a01b038085165f908152600160209081526040808320938716835292905220829055801561034357826001600160a01b0316846001600160a01b03167f8c5be1e5ebec7d5bd14f71427d1e84f3dd0314c0f7b2291e5b200ac8c7c3b925846040516104a291815260200190565b60405180910390a350505050565b6001600160a01b0383166104da578060025f8282546104cf919061073e565b9091555061054a9050565b6001600160a01b0383165f908152602081905260409020548181101561052c5760405163391434e360e21b81526001600160a01b0385166004820152602481018290526044810183905260640161032c565b6001600160a01b0384165f9081526020819052604090209082900390555b6001600160a01b03821661056657600280548290039055610584565b6001600160a01b0382165f9081526020819052604090208054820190555b816001600160a01b0316836001600160a01b03167fddf252ad1be2c89b69c2b068fc378daa952ba7f163c4a11628f55a4df523b3ef836040516105c991815260200190565b60405180910390a3505050565b602081525f82518060208401525f5b8181101561060257602081860181015160408684010152016105e5565b505f604082850101526040601f19601f83011684010191505092915050565b80356001600160a01b0381168114610637575f5ffd5b919050565b5f5f6040838503121561064d575f5ffd5b61065683610621565b946020939093013593505050565b5f5f5f60608486031215610676575f5ffd5b61067f84610621565b925061068d60208501610621565b929592945050506040919091013590565b5f602082840312156106ae575f5ffd5b5035919050565b5f602082840312156106c5575f5ffd5b6106ce82610621565b9392505050565b5f5f604083850312156106e6575f5ffd5b6106ef83610621565b91506106fd60208401610621565b90509250929050565b600181811c9082168061071a57607f821691505b60208210810361073857634e487b7160e01b5f52602260045260245ffd5b50919050565b8082018082111561026557634e487b7160e01b5f52601160045260245ffdfea26469706673582212209f1bd86d46d870e4e63cd0fe42c848507ff2287a8b7757f176e7e89074155c8664736f6c634300081c0033",
  "linkReferences": {},
  "deployedLinkReferences": {}
}