{
  "_format": "hh-sol-artifact-1",
  "contractName": "ColonyMap",
  "sourceName": "contracts/ColonyMap.sol",
  "abi": [
    {
      "inputs": [
        {
          "internalType": "address",
          "name": "_tokenAddress",
          "type": "address"
        }
      ],
      "stateMutability": "nonpayable",
      "type": "constructor"
    },
    {
      "inputs": [
        {
          "internalType": "address",
          "name": "owner",
          "type": "address"
        }
      ],
      "name": "OwnableInvalidOwner",
      "type": "error"
    },
    {
      "inputs": [
        {
          "internalType": "address",
          "name": "account",
          "type": "address"
        }
      ],
      "name": "OwnableUnauthorizedAccount",
      "type": "error"
    },
    {
      "inputs": [],
      "name": "ReentrancyGuardReentrantCall",
      "type": "error"
    },
    {
      "inputs": [
        {
          "internalType": "address",
          "name": "token",
          "type": "address"
        }
      ],
      "name": "SafeERC20FailedOperation",
      "type": "error"
    },
    {
      "anonymous": false,
      "inputs": [
        {
          "indexed": true,
          "internalType": "string",
          "name": "attacker",
          "type": "string"
        },
        {
          "indexed": true,
          "internalType": "string",
          "name": "defender",
          "type": "string"
        },
        {
          "indexed": false,
          "internalType": "string",
          "name": "winner",
          "type": "string"
        }
      ],
      "name": "BattleConcluded",
      "type": "event"
    },
    {
      "anonymous": false,
      "inputs": [
        {
          "indexed": true,
          "internalType": "address",
          "name": "contributor",
          "type": "address"
        },
        {
          "indexed": false,
          "internalType": "string",
          "name": "countryCode",
          "type": "string"
        },
        {
          "indexed": false,
          "internalType": "uint256",
          "name": "amount",
          "type": "uint256"
        },
        {
          "indexed": false,
          "internalType": "uint256",
          "name": "timestamp",
          "type": "uint256"
        }
      ],
      "name": "Contribution",
      "type": "event"
    },
    {
      "anonymous": false,
      "inputs": [
        {
          "indexed": true,
          "internalType": "address",
          "name": "previousOwner",
          "type": "address"
        },
        {
          "indexed": true,
          "internalType": "address",
          "name": "newOwner",
          "type": "address"
        }
      ],
      "name": "OwnershipTransferred",
      "type": "event"
    },
    {
      "anonymous": false,
      "inputs": [
        {
          "indexed": true,
          "internalType": "address",
          "name": "to",
          "type": "address"
        },
        {
          "indexed": false,
          "internalType": "uint256",
          "name": "amount",
          "type": "uint256"
        },
        {
          "indexed": true,
          "internalType": "string",
          "name": "countryCode",
          "type": "string"
        }
      ],
      "name": "TokensWithdrawn",
      "type": "event"
    },
    {
      "inputs": [],
      "name": "MIN_CONTRIBUTION",
      "outputs": [
        {
          "internalType": "uint256",
          "name": "",
          "type": "uint256"
        }
      ],
      "stateMutability": "view",
      "type": "function"
    },
    {
      "inputs": [
        {
          "internalType": "string",
          "name": "_attacker",
          "type": "string"
        },
        {
          "internalType": "string",
          "name": "_defender",
          "type": "string"
        }
      ],
      "name": "battle",
      "outputs": [],
      "stateMutability": "nonpayable",
      "type": "function"
    },
    {
      "inputs": [],
      "name": "colonyAnt",
      "outputs": [
        {
          "internalType": "contract IERC20",
          "name": "",
          "type": "address"
        }
      ],
      "stateMutability": "view",
      "type": "function"
    },
    {
      "inputs": [
        {
          "internalType": "string",
          "name": "_countryCode",
          "type": "string"
        },
        {
          "internalType": "uint256",
          "name": "_amount",
          "type": "uint256"
        }
      ],
      "name": "contribute",
      "outputs": [],
      "stateMutability": "nonpayable",
      "type": "function"
    },
    {
      "inputs": [
        {
          "internalType": "string",
          "name": "",
          "type": "string"
        }
      ],
      "name": "contributions",
      "outputs": [
        {
          "internalType": "uint256",
          "name": "",
          "type": "uint256"
        }
      ],
      "stateMutability": "view",
      "type": "function"
    },
    {
      "inputs": [
        {
          "internalType": "address",
          "name": "",
          "type": "address"
        }
      ],
      "name": "contributorCountry",
      "outputs": [
        {
          "internalType": "string",
          "name": "",
          "type": "string"
        }
      ],
      "stateMutability": "view",
      "type": "function"
    },
    {
      "inputs": [
        {
          "internalType": "address",
          "name": "_contributor",
          "type": "address"
        }
      ],
      "name": "getContributorCountry",
      "outputs": [
        {
          "internalType": "string",
          "name": "",
          "type": "string"
        }
      ],
      "stateMutability": "view",
      "type": "function"
    },
    {
      "inputs": [
        {
          "internalType": "string",
          "name": "_countryCode",
          "type": "string"
        }
      ],
      "name": "getCountryContributions",
      "outputs": [
        {
          "internalType": "uint256",
          "name": "",
          "type": "uint256"
        }
      ],
      "stateMutability": "view",
      "type": "function"
    },
    {
      "inputs": [
        {
          "internalType": "address",
          "name": "_contributor",
          "type": "address"
        }
      ],
      "name": "getLastContributionTime",
      "outputs": [
        {
          "internalType": "uint256",
          "name": "",
          "type": "uint256"
        }
      ],
      "stateMutability": "view",
      "type": "function"
    },
    {
      "inputs": [
        {
          "internalType": "address",
          "name": "",
          "type": "address"
        }
      ],
      "name": "lastContribution",
      "outputs": [
        {
          "internalType": "uint256",
          "name": "",
          "type": "uint256"
        }
      ],
      "stateMutability": "view",
      "type": "function"
    },
    {
      "inputs": [],
      "name": "owner",
      "outputs": [
        {
          "internalType": "address",
          "name": "",
          "type": "address"
        }
      ],
      "stateMutability": "view",
      "type": "function"
    },
    {
      "inputs": [],
      "name": "renounceOwnership",
      "outputs": [],
      "stateMutability": "nonpayable",
      "type": "function"
    },
    {
      "inputs": [
        {
          "internalType": "address",
          "name": "newOwner",
          "type": "address"
        }
      ],
      "name": "transferOwnership",
      "outputs": [],
      "stateMutability": "nonpayable",
      "type": "function"
    },
    {
      "inputs": [
        {
          "internalType": "address",
          "name": "_to",
          "type": "address"
        },
        {
          "internalType": "uint256",
          "name": "_amount",
          "type": "uint256"
        },
        {
          "internalType": "string[]",
          "name": "_countryCodes",
          "type": "string[]"
        }
      ],
      "name": "withdrawTokens",
      "outputs": [],
      "stateMutability": "nonpayable",
      "type": "function"
    }
  ],
  "bytecode": "0x608060405234801561000f575f5ffd5b5060405161112638038061112683398101604081905261002e916100d5565b338061005357604051631e4fbdf760e01b81525f600482015260240160405180910390fd5b61005c81610086565b5060018055600280546001600160a01b0319166001600160a01b0392909216919091179055610102565b5f80546001600160a01b038381166001600160a01b0319831681178455604051919092169283917f8be0079c531659141344cd1fd0a4f28419497f9722a3daafe3b4186f6b6457e09190a35050565b5f602082840312156100e5575f5ffd5b81516001600160a01b03811681146100fb575f5ffd5b9392505050565b6110178061010f5f395ff3fe608060405234801561000f575f5ffd5b50600436106100e5575f3560e01c80638da5cb5b11610088578063b25644ec11610063578063b25644ec146101e7578063e35672661461020f578063eafc8d2014610222578063f2fde38b14610241575f5ffd5b80638da5cb5b146101a4578063ae817f9a146101b4578063afc1977c146101c7575f5ffd5b80634d9db94c116100c35780634d9db94c1461014b57806355a421ac14610176578063715018a6146101895780637f5a684f14610191575f5ffd5b806340650c91146100e957806341ebdd1e1461010b5780634244dc1e14610120575b5f5ffd5b6100f8670de0b6b3a764000081565b6040519081526020015b60405180910390f35b61011e610119366004610b93565b610254565b005b600254610133906001600160a01b031681565b6040516001600160a01b039091168152602001610102565b6100f8610159366004610bf8565b805160208183018101805160038252928201919093012091525481565b6100f8610184366004610bf8565b610436565b61011e61045d565b61011e61019f366004610c4d565b610470565b5f546001600160a01b0316610133565b61011e6101c2366004610d34565b61060c565b6101da6101d5366004610d76565b6107b6565b6040516101029190610de3565b6100f86101f5366004610d76565b6001600160a01b03165f9081526004602052604090205490565b6101da61021d366004610d76565b61085f565b6100f8610230366004610d76565b60046020525f908152604090205481565b61011e61024f366004610d76565b6108f6565b61025c610933565b5f60038360405161026d9190610df5565b9081526020016040518091039020541180156102a657505f6003826040516102959190610df5565b908152602001604051809103902054115b6103065760405162461bcd60e51b815260206004820152602660248201527f426f746820636f756e7472696573206d757374206861766520636f6e747269626044820152657574696f6e7360d01b60648201526084015b60405180910390fd5b5f6003836040516103179190610df5565b90815260200160405180910390205490505f6003836040516103399190610df5565b9081526040519081900360200190205490505f6103568284610e10565b90505f8142433360405160200161039293929190928352602083019190915260601b6bffffffffffffffffffffffff1916604082015260540190565b604051602081830303815290604052805190602001205f1c6103b49190610e35565b90506060848210156103c75750856103ca565b50845b856040516103d89190610df5565b6040518091039020876040516103ee9190610df5565b60405180910390207fbe0117a8a4394238e69c79ba5ee88762384b0a3b43b36b88bb0db59c1c127609836040516104259190610de3565b60405180910390a350505050505050565b5f6003826040516104479190610df5565b9081526020016040518091039020549050919050565b610465610933565b61046e5f61095f565b565b610478610933565b6104806109ae565b6002546040516370a0823160e01b81523060048201526001600160a01b03909116906370a0823190602401602060405180830381865afa1580156104c6573d5f5f3e3d5ffd5b505050506040513d601f19601f820116820180604052508101906104ea9190610e54565b8211156105305760405162461bcd60e51b8152602060048201526014602482015273496e73756666696369656e742062616c616e636560601b60448201526064016102fd565b5f5b815181101561057d575f600383838151811061055057610550610e6b565b60200260200101516040516105659190610df5565b90815260405190819003602001902055600101610532565b50600254610595906001600160a01b031684846109d8565b604051714d756c7469706c6520436f756e747269657360701b81526012016040518091039020836001600160a01b03167fea0fd626492afdf1ed914b04501fff99d80831b2577f039aa04d375bbf2294fe846040516105f691815260200190565b60405180910390a361060760018055565b505050565b6106146109ae565b670de0b6b3a7640000811461067b5760405162461bcd60e51b815260206004820152602760248201527f436f6e747269627574696f6e206d75737420626520312077686f6c6520436f6c6044820152661bdb9e48105b9d60ca1b60648201526084016102fd565b335f9081526004602052604090205461069690610e10610e10565b42116106dd5760405162461bcd60e51b8152602060048201526016602482015275121bdd5c9b1e481b1a5b5a5d081b9bdd081c995cd95d60521b60448201526064016102fd565b6002546106f5906001600160a01b0316333084610a37565b806003836040516107069190610df5565b90815260200160405180910390205461071f9190610e10565b60038360405161072f9190610df5565b908152604080516020928190038301902092909255335f908152600482528281204290556005909152206107638382610f02565b50336001600160a01b03167f8d907c93ff18e98723678268b6c80dcc66ad895aa3f180551f1f0052c8af39438383426040516107a193929190610fbd565b60405180910390a26107b260018055565b5050565b6001600160a01b0381165f9081526005602052604090208054606091906107dc90610e7f565b80601f016020809104026020016040519081016040528092919081815260200182805461080890610e7f565b80156108535780601f1061082a57610100808354040283529160200191610853565b820191905f5260205f20905b81548152906001019060200180831161083657829003601f168201915b50505050509050919050565b60056020525f90815260409020805461087790610e7f565b80601f01602080910402602001604051908101604052809291908181526020018280546108a390610e7f565b80156108ee5780601f106108c5576101008083540402835291602001916108ee565b820191905f5260205f20905b8154815290600101906020018083116108d157829003601f168201915b505050505081565b6108fe610933565b6001600160a01b03811661092757604051631e4fbdf760e01b81525f60048201526024016102fd565b6109308161095f565b50565b5f546001600160a01b0316331461046e5760405163118cdaa760e01b81523360048201526024016102fd565b5f80546001600160a01b038381166001600160a01b0319831681178455604051919092169283917f8be0079c531659141344cd1fd0a4f28419497f9722a3daafe3b4186f6b6457e09190a35050565b6002600154036109d157604051633ee5aeb560e01b815260040160405180910390fd5b6002600155565b6040516001600160a01b0383811660248301526044820183905261060791859182169063a9059cbb906064015b604051602081830303815290604052915060e01b6020820180516001600160e01b038381831617835250505050610a76565b6040516001600160a01b038481166024830152838116604483015260648201839052610a709186918216906323b872dd90608401610a05565b50505050565b5f5f60205f8451602086015f885af180610a95576040513d5f823e3d81fd5b50505f513d91508115610aac578060011415610ab9565b6001600160a01b0384163b155b15610a7057604051635274afe760e01b81526001600160a01b03851660048201526024016102fd565b634e487b7160e01b5f52604160045260245ffd5b604051601f8201601f1916810167ffffffffffffffff81118282101715610b1f57610b1f610ae2565b604052919050565b5f82601f830112610b36575f5ffd5b813567ffffffffffffffff811115610b5057610b50610ae2565b610b63601f8201601f1916602001610af6565b818152846020838601011115610b77575f5ffd5b816020850160208301375f918101602001919091529392505050565b5f5f60408385031215610ba4575f5ffd5b823567ffffffffffffffff811115610bba575f5ffd5b610bc685828601610b27565b925050602083013567ffffffffffffffff811115610be2575f5ffd5b610bee85828601610b27565b9150509250929050565b5f60208284031215610c08575f5ffd5b813567ffffffffffffffff811115610c1e575f5ffd5b610c2a84828501610b27565b949350505050565b80356001600160a01b0381168114610c48575f5ffd5b919050565b5f5f5f60608486031215610c5f575f5ffd5b610c6884610c32565b925060208401359150604084013567ffffffffffffffff811115610c8a575f5ffd5b8401601f81018613610c9a575f5ffd5b803567ffffffffffffffff811115610cb457610cb4610ae2565b8060051b610cc460208201610af6565b91825260208184018101929081019089841115610cdf575f5ffd5b6020850192505b83831015610d2557823567ffffffffffffffff811115610d04575f5ffd5b610d138b602083890101610b27565b83525060209283019290910190610ce6565b80955050505050509250925092565b5f5f60408385031215610d45575f5ffd5b823567ffffffffffffffff811115610d5b575f5ffd5b610d6785828601610b27565b95602094909401359450505050565b5f60208284031215610d86575f5ffd5b610d8f82610c32565b9392505050565b5f5b83811015610db0578181015183820152602001610d98565b50505f910152565b5f8151808452610dcf816020860160208601610d96565b601f01601f19169290920160200192915050565b602081525f610d8f6020830184610db8565b5f8251610e06818460208701610d96565b9190910192915050565b80820180821115610e2f57634e487b7160e01b5f52601160045260245ffd5b92915050565b5f82610e4f57634e487b7160e01b5f52601260045260245ffd5b500690565b5f60208284031215610e64575f5ffd5b5051919050565b634e487b7160e01b5f52603260045260245ffd5b600181811c90821680610e9357607f821691505b602082108103610eb157634e487b7160e01b5f52602260045260245ffd5b50919050565b601f82111561060757805f5260205f20601f840160051c81016020851015610edc5750805b601f840160051c820191505b81811015610efb575f8155600101610ee8565b5050505050565b815167ffffffffffffffff811115610f1c57610f1c610ae2565b610f3081610f2a8454610e7f565b84610eb7565b6020601f821160018114610f62575f8315610f4b5750848201515b5f19600385901b1c1916600184901b178455610efb565b5f84815260208120601f198516915b82811015610f915787850151825560209485019460019092019101610f71565b5084821015610fae57868401515f19600387901b60f8161c191681555b50505050600190811b01905550565b606081525f610fcf6060830186610db8565b6020830194909452506040015291905056fea2646970667358221220e5958ee029799c979c4d52a70228c436807de0997c06f049d9299293be127d4364736f6c634300081c0033",
  "linkReferences": {},
  "deployedLinkReferences": {}
}